{
  "contractName": "MyToken",
  "abi": [
    {
      "inputs": [
        {
          "internalType": "address",
          "name": "owner",
          "type": "address"
        },
        {
          "internalType": "address",
          "name": "add1",
          "type": "address"
        },
        {
          "internalType": "address",
          "name": "add2",
          "type": "address"
        },
        {
          "internalType": "address",
          "name": "add3",
          "type": "address"
        }
      ],
      "stateMutability": "nonpayable",
      "type": "constructor"
    },
    {
      "anonymous": false,
      "inputs": [
        {
          "indexed": true,
          "internalType": "address",
          "name": "owner",
          "type": "address"
        },
        {
          "indexed": true,
          "internalType": "address",
          "name": "spender",
          "type": "address"
        },
        {
          "indexed": false,
          "internalType": "uint256",
          "name": "value",
          "type": "uint256"
        }
      ],
      "name": "Approval",
      "type": "event"
    },
    {
      "anonymous": false,
      "inputs": [
        {
          "components": [
            {
              "internalType": "address",
              "name": "sender",
              "type": "address"
            },
            {
              "internalType": "uint256",
              "name": "amount",
              "type": "uint256"
            }
          ],
          "indexed": false,
          "internalType": "struct MyToken.Loterie[]",
          "name": "AllTransfer",
          "type": "tuple[]"
        }
      ],
      "name": "RollLoterie",
      "type": "event"
    },
    {
      "anonymous": false,
      "inputs": [
        {
          "indexed": true,
          "internalType": "address",
          "name": "from",
          "type": "address"
        },
        {
          "indexed": true,
          "internalType": "address",
          "name": "to",
          "type": "address"
        },
        {
          "indexed": false,
          "internalType": "uint256",
          "name": "value",
          "type": "uint256"
        }
      ],
      "name": "Transfer",
      "type": "event"
    },
    {
      "anonymous": false,
      "inputs": [
        {
          "indexed": false,
          "internalType": "uint256",
          "name": "count",
          "type": "uint256"
        }
      ],
      "name": "transferCount",
      "type": "event"
    },
    {
      "inputs": [
        {
          "internalType": "address",
          "name": "owner",
          "type": "address"
        },
        {
          "internalType": "address",
          "name": "spender",
          "type": "address"
        }
      ],
      "name": "allowance",
      "outputs": [
        {
          "internalType": "uint256",
          "name": "",
          "type": "uint256"
        }
      ],
      "stateMutability": "view",
      "type": "function",
      "constant": true
    },
    {
      "inputs": [
        {
          "internalType": "address",
          "name": "spender",
          "type": "address"
        },
        {
          "internalType": "uint256",
          "name": "amount",
          "type": "uint256"
        }
      ],
      "name": "approve",
      "outputs": [
        {
          "internalType": "bool",
          "name": "",
          "type": "bool"
        }
      ],
      "stateMutability": "nonpayable",
      "type": "function"
    },
    {
      "inputs": [
        {
          "internalType": "address",
          "name": "account",
          "type": "address"
        }
      ],
      "name": "balanceOf",
      "outputs": [
        {
          "internalType": "uint256",
          "name": "",
          "type": "uint256"
        }
      ],
      "stateMutability": "view",
      "type": "function",
      "constant": true
    },
    {
      "inputs": [],
      "name": "decimals",
      "outputs": [
        {
          "internalType": "uint8",
          "name": "",
          "type": "uint8"
        }
      ],
      "stateMutability": "view",
      "type": "function",
      "constant": true
    },
    {
      "inputs": [
        {
          "internalType": "address",
          "name": "spender",
          "type": "address"
        },
        {
          "internalType": "uint256",
          "name": "subtractedValue",
          "type": "uint256"
        }
      ],
      "name": "decreaseAllowance",
      "outputs": [
        {
          "internalType": "bool",
          "name": "",
          "type": "bool"
        }
      ],
      "stateMutability": "nonpayable",
      "type": "function"
    },
    {
      "inputs": [
        {
          "internalType": "address",
          "name": "spender",
          "type": "address"
        },
        {
          "internalType": "uint256",
          "name": "addedValue",
          "type": "uint256"
        }
      ],
      "name": "increaseAllowance",
      "outputs": [
        {
          "internalType": "bool",
          "name": "",
          "type": "bool"
        }
      ],
      "stateMutability": "nonpayable",
      "type": "function"
    },
    {
      "inputs": [],
      "name": "name",
      "outputs": [
        {
          "internalType": "string",
          "name": "",
          "type": "string"
        }
      ],
      "stateMutability": "view",
      "type": "function",
      "constant": true
    },
    {
      "inputs": [],
      "name": "symbol",
      "outputs": [
        {
          "internalType": "string",
          "name": "",
          "type": "string"
        }
      ],
      "stateMutability": "view",
      "type": "function",
      "constant": true
    },
    {
      "inputs": [],
      "name": "totalSupply",
      "outputs": [
        {
          "internalType": "uint256",
          "name": "",
          "type": "uint256"
        }
      ],
      "stateMutability": "view",
      "type": "function",
      "constant": true
    },
    {
      "inputs": [
        {
          "internalType": "address",
          "name": "sender",
          "type": "address"
        },
        {
          "internalType": "address",
          "name": "recipient",
          "type": "address"
        },
        {
          "internalType": "uint256",
          "name": "amount",
          "type": "uint256"
        }
      ],
      "name": "transferFrom",
      "outputs": [
        {
          "internalType": "bool",
          "name": "",
          "type": "bool"
        }
      ],
      "stateMutability": "nonpayable",
      "type": "function"
    },
    {
      "inputs": [
        {
          "internalType": "address",
          "name": "recipient",
          "type": "address"
        },
        {
          "internalType": "uint256",
          "name": "amount",
          "type": "uint256"
        }
      ],
      "name": "transfer",
      "outputs": [
        {
          "internalType": "bool",
          "name": "",
          "type": "bool"
        }
      ],
      "stateMutability": "nonpayable",
      "type": "function"
    },
    {
      "inputs": [
        {
          "internalType": "address",
          "name": "winner",
          "type": "address"
        }
      ],
      "name": "transferToWinner",
      "outputs": [],
      "stateMutability": "nonpayable",
      "type": "function"
    },
    {
      "inputs": [],
      "name": "checkLotterieLength",
      "outputs": [],
      "stateMutability": "nonpayable",
      "type": "function"
    }
  ],
  "bytecode": "0x608060405260006006553480156200001657600080fd5b5060405162001fc438038062001fc483398181016040528101906200003c919062000452565b6040518060400160405280600781526020017f4c6f7465726965000000000000000000000000000000000000000000000000008152506040518060400160405280600381526020017f41555200000000000000000000000000000000000000000000000000000000008152508160039080519060200190620000c092919062000338565b508060049080519060200190620000d992919062000338565b50505083600560006101000a81548173ffffffffffffffffffffffffffffffffffffffff021916908373ffffffffffffffffffffffffffffffffffffffff1602179055506200015a600560009054906101000a900473ffffffffffffffffffffffffffffffffffffffff16683635c9adc5dea00000620001b560201b60201c565b620001758368a2a15d09519be00000620001b560201b60201c565b620001908268a2a15d09519be00000620001b560201b60201c565b620001ab8168a2a15d09519be00000620001b560201b60201c565b5050505062000670565b600073ffffffffffffffffffffffffffffffffffffffff168273ffffffffffffffffffffffffffffffffffffffff16141562000228576040517f08c379a00000000000000000000000000000000000000000000000000000000081526004016200021f9062000525565b60405180910390fd5b6200023c600083836200032e60201b60201c565b806002600082825462000250919062000580565b92505081905550806000808473ffffffffffffffffffffffffffffffffffffffff1673ffffffffffffffffffffffffffffffffffffffff1681526020019081526020016000206000828254620002a7919062000580565b925050819055508173ffffffffffffffffffffffffffffffffffffffff16600073ffffffffffffffffffffffffffffffffffffffff167fddf252ad1be2c89b69c2b068fc378daa952ba7f163c4a11628f55a4df523b3ef836040516200030e9190620005ee565b60405180910390a36200032a600083836200033360201b60201c565b5050565b505050565b505050565b82805462000346906200063a565b90600052602060002090601f0160209004810192826200036a5760008555620003b6565b82601f106200038557805160ff1916838001178555620003b6565b82800160010185558215620003b6579182015b82811115620003b557825182559160200191906001019062000398565b5b509050620003c59190620003c9565b5090565b5b80821115620003e4576000816000905550600101620003ca565b5090565b600080fd5b600073ffffffffffffffffffffffffffffffffffffffff82169050919050565b60006200041a82620003ed565b9050919050565b6200042c816200040d565b81146200043857600080fd5b50565b6000815190506200044c8162000421565b92915050565b600080600080608085870312156200046f576200046e620003e8565b5b60006200047f878288016200043b565b945050602062000492878288016200043b565b9350506040620004a5878288016200043b565b9250506060620004b8878288016200043b565b91505092959194509250565b600082825260208201905092915050565b7f45524332303a206d696e7420746f20746865207a65726f206164647265737300600082015250565b60006200050d601f83620004c4565b91506200051a82620004d5565b602082019050919050565b600060208201905081810360008301526200054081620004fe565b9050919050565b6000819050919050565b7f4e487b7100000000000000000000000000000000000000000000000000000000600052601160045260246000fd5b60006200058d8262000547565b91506200059a8362000547565b9250827fffffffffffffffffffffffffffffffffffffffffffffffffffffffffffffffff03821115620005d257620005d162000551565b5b828201905092915050565b620005e88162000547565b82525050565b6000602082019050620006056000830184620005dd565b92915050565b7f4e487b7100000000000000000000000000000000000000000000000000000000600052602260045260246000fd5b600060028204905060018216806200065357607f821691505b602082108114156200066a57620006696200060b565b5b50919050565b61194480620006806000396000f3fe608060405234801561001057600080fd5b50600436106100ce5760003560e01c8063395093511161008c57806395d89b411161006657806395d89b4114610213578063a457c2d714610231578063a9059cbb14610261578063dd62ed3e14610291576100ce565b80633950935114610197578063526ed39b146101c757806370a08231146101e3576100ce565b8062cea9db146100d357806306fdde03146100dd578063095ea7b3146100fb57806318160ddd1461012b57806323b872dd14610149578063313ce56714610179575b600080fd5b6100db6102c1565b005b6100e561031f565b6040516100f29190610efc565b60405180910390f35b61011560048036038101906101109190610fb7565b6103b1565b6040516101229190611012565b60405180910390f35b6101336103cf565b604051610140919061103c565b60405180910390f35b610163600480360381019061015e9190611057565b6103d9565b6040516101709190611012565b60405180910390f35b6101816104d1565b60405161018e91906110c6565b60405180910390f35b6101b160048036038101906101ac9190610fb7565b6104da565b6040516101be9190611012565b60405180910390f35b6101e160048036038101906101dc91906110e1565b610586565b005b6101fd60048036038101906101f891906110e1565b6105a2565b60405161020a919061103c565b60405180910390f35b61021b6105ea565b6040516102289190610efc565b60405180910390f35b61024b60048036038101906102469190610fb7565b61067c565b6040516102589190611012565b60405180910390f35b61027b60048036038101906102769190610fb7565b610767565b6040516102889190611012565b60405180910390f35b6102ab60048036038101906102a6919061110e565b610914565b6040516102b8919061103c565b60405180910390f35b60036007805490501061031d577f8c80f70370395b95ed2f21defa828364af0a8b48f853197fa1332effe6a53ed160076040516102fe91906112d1565b60405180910390a160006006819055506007600061031c9190610df9565b5b565b60606003805461032e90611322565b80601f016020809104026020016040519081016040528092919081815260200182805461035a90611322565b80156103a75780601f1061037c576101008083540402835291602001916103a7565b820191906000526020600020905b81548152906001019060200180831161038a57829003601f168201915b5050505050905090565b60006103c56103be61099b565b84846109a3565b6001905092915050565b6000600254905090565b60006103e6848484610b6e565b6000600160008673ffffffffffffffffffffffffffffffffffffffff1673ffffffffffffffffffffffffffffffffffffffff168152602001908152602001600020600061043161099b565b73ffffffffffffffffffffffffffffffffffffffff1673ffffffffffffffffffffffffffffffffffffffff168152602001908152602001600020549050828110156104b1576040517f08c379a00000000000000000000000000000000000000000000000000000000081526004016104a8906113c6565b60405180910390fd5b6104c5856104bd61099b565b8584036109a3565b60019150509392505050565b60006012905090565b600061057c6104e761099b565b8484600160006104f561099b565b73ffffffffffffffffffffffffffffffffffffffff1673ffffffffffffffffffffffffffffffffffffffff16815260200190815260200160002060008873ffffffffffffffffffffffffffffffffffffffff1673ffffffffffffffffffffffffffffffffffffffff168152602001908152602001600020546105779190611415565b6109a3565b6001905092915050565b6000610591306105a2565b905061059e308383610b6e565b5050565b60008060008373ffffffffffffffffffffffffffffffffffffffff1673ffffffffffffffffffffffffffffffffffffffff168152602001908152602001600020549050919050565b6060600480546105f990611322565b80601f016020809104026020016040519081016040528092919081815260200182805461062590611322565b80156106725780601f1061064757610100808354040283529160200191610672565b820191906000526020600020905b81548152906001019060200180831161065557829003601f168201915b5050505050905090565b6000806001600061068b61099b565b73ffffffffffffffffffffffffffffffffffffffff1673ffffffffffffffffffffffffffffffffffffffff16815260200190815260200160002060008573ffffffffffffffffffffffffffffffffffffffff1673ffffffffffffffffffffffffffffffffffffffff16815260200190815260200160002054905082811015610748576040517f08c379a000000000000000000000000000000000000000000000000000000000815260040161073f906114dd565b60405180910390fd5b61075c61075361099b565b858584036109a3565b600191505092915050565b6000806064600a8461077991906114fd565b6107839190611586565b90506107c561079061099b565b600560009054906101000a900473ffffffffffffffffffffffffffffffffffffffff166002846107c09190611586565b610b6e565b6107e36107d061099b565b306002846107de9190611586565b610b6e565b6108006107ee61099b565b8583866107fb91906115b7565b610b6e565b60066000815480929190610813906115eb565b91905055506007604051806040016040528061082d61099b565b73ffffffffffffffffffffffffffffffffffffffff16815260200185815250908060018154018082558091505060019003906000526020600020906002020160009091909190915060008201518160000160006101000a81548173ffffffffffffffffffffffffffffffffffffffff021916908373ffffffffffffffffffffffffffffffffffffffff1602179055506020820151816001015550507fec02ef57c1bf43995a00e8bd977b6c9fc3ae86dde3ccb4ad85c27e48e4bc233c6006546040516108f9919061103c565b60405180910390a16109096102c1565b600191505092915050565b6000600160008473ffffffffffffffffffffffffffffffffffffffff1673ffffffffffffffffffffffffffffffffffffffff16815260200190815260200160002060008373ffffffffffffffffffffffffffffffffffffffff1673ffffffffffffffffffffffffffffffffffffffff16815260200190815260200160002054905092915050565b600033905090565b600073ffffffffffffffffffffffffffffffffffffffff168373ffffffffffffffffffffffffffffffffffffffff161415610a13576040517f08c379a0000000000000000000000000000000000000000000000000000000008152600401610a0a906116a6565b60405180910390fd5b600073ffffffffffffffffffffffffffffffffffffffff168273ffffffffffffffffffffffffffffffffffffffff161415610a83576040517f08c379a0000000000000000000000000000000000000000000000000000000008152600401610a7a90611738565b60405180910390fd5b80600160008573ffffffffffffffffffffffffffffffffffffffff1673ffffffffffffffffffffffffffffffffffffffff16815260200190815260200160002060008473ffffffffffffffffffffffffffffffffffffffff1673ffffffffffffffffffffffffffffffffffffffff168152602001908152602001600020819055508173ffffffffffffffffffffffffffffffffffffffff168373ffffffffffffffffffffffffffffffffffffffff167f8c5be1e5ebec7d5bd14f71427d1e84f3dd0314c0f7b2291e5b200ac8c7c3b92583604051610b61919061103c565b60405180910390a3505050565b600073ffffffffffffffffffffffffffffffffffffffff168373ffffffffffffffffffffffffffffffffffffffff161415610bde576040517f08c379a0000000000000000000000000000000000000000000000000000000008152600401610bd5906117ca565b60405180910390fd5b600073ffffffffffffffffffffffffffffffffffffffff168273ffffffffffffffffffffffffffffffffffffffff161415610c4e576040517f08c379a0000000000000000000000000000000000000000000000000000000008152600401610c459061185c565b60405180910390fd5b610c59838383610def565b60008060008573ffffffffffffffffffffffffffffffffffffffff1673ffffffffffffffffffffffffffffffffffffffff16815260200190815260200160002054905081811015610cdf576040517f08c379a0000000000000000000000000000000000000000000000000000000008152600401610cd6906118ee565b60405180910390fd5b8181036000808673ffffffffffffffffffffffffffffffffffffffff1673ffffffffffffffffffffffffffffffffffffffff16815260200190815260200160002081905550816000808573ffffffffffffffffffffffffffffffffffffffff1673ffffffffffffffffffffffffffffffffffffffff1681526020019081526020016000206000828254610d729190611415565b925050819055508273ffffffffffffffffffffffffffffffffffffffff168473ffffffffffffffffffffffffffffffffffffffff167fddf252ad1be2c89b69c2b068fc378daa952ba7f163c4a11628f55a4df523b3ef84604051610dd6919061103c565b60405180910390a3610de9848484610df4565b50505050565b505050565b505050565b5080546000825560020290600052602060002090810190610e1a9190610e1d565b50565b5b80821115610e5f57600080820160006101000a81549073ffffffffffffffffffffffffffffffffffffffff0219169055600182016000905550600201610e1e565b5090565b600081519050919050565b600082825260208201905092915050565b60005b83811015610e9d578082015181840152602081019050610e82565b83811115610eac576000848401525b50505050565b6000601f19601f8301169050919050565b6000610ece82610e63565b610ed88185610e6e565b9350610ee8818560208601610e7f565b610ef181610eb2565b840191505092915050565b60006020820190508181036000830152610f168184610ec3565b905092915050565b600080fd5b600073ffffffffffffffffffffffffffffffffffffffff82169050919050565b6000610f4e82610f23565b9050919050565b610f5e81610f43565b8114610f6957600080fd5b50565b600081359050610f7b81610f55565b92915050565b6000819050919050565b610f9481610f81565b8114610f9f57600080fd5b50565b600081359050610fb181610f8b565b92915050565b60008060408385031215610fce57610fcd610f1e565b5b6000610fdc85828601610f6c565b9250506020610fed85828601610fa2565b9150509250929050565b60008115159050919050565b61100c81610ff7565b82525050565b60006020820190506110276000830184611003565b92915050565b61103681610f81565b82525050565b6000602082019050611051600083018461102d565b92915050565b6000806000606084860312156110705761106f610f1e565b5b600061107e86828701610f6c565b935050602061108f86828701610f6c565b92505060406110a086828701610fa2565b9150509250925092565b600060ff82169050919050565b6110c0816110aa565b82525050565b60006020820190506110db60008301846110b7565b92915050565b6000602082840312156110f7576110f6610f1e565b5b600061110584828501610f6c565b91505092915050565b6000806040838503121561112557611124610f1e565b5b600061113385828601610f6c565b925050602061114485828601610f6c565b9150509250929050565b600081549050919050565b600082825260208201905092915050565b60008190508160005260206000209050919050565b60008160001c9050919050565b600073ffffffffffffffffffffffffffffffffffffffff82169050919050565b60006111bf6111ba8361117f565b61118c565b9050919050565b6111cf81610f43565b82525050565b6000819050919050565b60006111f26111ed8361117f565b6111d5565b9050919050565b61120281610f81565b82525050565b60408201600080830154905061121d816111ac565b61122a60008601826111c6565b506001830154905061123b816111df565b61124860208601826111f9565b5050505050565b600061125b8383611208565b60408301905092915050565b6000600282019050919050565b600061127f8261114e565b6112898185611159565b93506112948361116a565b8060005b838110156112c457816112ab888261124f565b97506112b683611267565b925050600181019050611298565b5085935050505092915050565b600060208201905081810360008301526112eb8184611274565b905092915050565b7f4e487b7100000000000000000000000000000000000000000000000000000000600052602260045260246000fd5b6000600282049050600182168061133a57607f821691505b6020821081141561134e5761134d6112f3565b5b50919050565b7f45524332303a207472616e7366657220616d6f756e742065786365656473206160008201527f6c6c6f77616e6365000000000000000000000000000000000000000000000000602082015250565b60006113b0602883610e6e565b91506113bb82611354565b604082019050919050565b600060208201905081810360008301526113df816113a3565b9050919050565b7f4e487b7100000000000000000000000000000000000000000000000000000000600052601160045260246000fd5b600061142082610f81565b915061142b83610f81565b9250827fffffffffffffffffffffffffffffffffffffffffffffffffffffffffffffffff038211156114605761145f6113e6565b5b828201905092915050565b7f45524332303a2064656372656173656420616c6c6f77616e63652062656c6f7760008201527f207a65726f000000000000000000000000000000000000000000000000000000602082015250565b60006114c7602583610e6e565b91506114d28261146b565b604082019050919050565b600060208201905081810360008301526114f6816114ba565b9050919050565b600061150882610f81565b915061151383610f81565b9250817fffffffffffffffffffffffffffffffffffffffffffffffffffffffffffffffff048311821515161561154c5761154b6113e6565b5b828202905092915050565b7f4e487b7100000000000000000000000000000000000000000000000000000000600052601260045260246000fd5b600061159182610f81565b915061159c83610f81565b9250826115ac576115ab611557565b5b828204905092915050565b60006115c282610f81565b91506115cd83610f81565b9250828210156115e0576115df6113e6565b5b828203905092915050565b60006115f682610f81565b91507fffffffffffffffffffffffffffffffffffffffffffffffffffffffffffffffff821415611629576116286113e6565b5b600182019050919050565b7f45524332303a20617070726f76652066726f6d20746865207a65726f2061646460008201527f7265737300000000000000000000000000000000000000000000000000000000602082015250565b6000611690602483610e6e565b915061169b82611634565b604082019050919050565b600060208201905081810360008301526116bf81611683565b9050919050565b7f45524332303a20617070726f766520746f20746865207a65726f20616464726560008201527f7373000000000000000000000000000000000000000000000000000000000000602082015250565b6000611722602283610e6e565b915061172d826116c6565b604082019050919050565b6000602082019050818103600083015261175181611715565b9050919050565b7f45524332303a207472616e736665722066726f6d20746865207a65726f20616460008201527f6472657373000000000000000000000000000000000000000000000000000000602082015250565b60006117b4602583610e6e565b91506117bf82611758565b604082019050919050565b600060208201905081810360008301526117e3816117a7565b9050919050565b7f45524332303a207472616e7366657220746f20746865207a65726f206164647260008201527f6573730000000000000000000000000000000000000000000000000000000000602082015250565b6000611846602383610e6e565b9150611851826117ea565b604082019050919050565b6000602082019050818103600083015261187581611839565b9050919050565b7f45524332303a207472616e7366657220616d6f756e742065786365656473206260008201527f616c616e63650000000000000000000000000000000000000000000000000000602082015250565b60006118d8602683610e6e565b91506118e38261187c565b604082019050919050565b60006020820190508181036000830152611907816118cb565b905091905056fea2646970667358221220b3b58d1092a6490916ddb772781c2e2cba9ae6b6f05ff67c5c37db6ff8295f3664736f6c634300080b0033",
  "immutableReferences": {},
  "source": "// SPDX-License-Identifier: MIT\n\npragma solidity ^0.8.2;\n\nimport \"@openzeppelin/contracts/token/ERC20/ERC20.sol\";\n\ncontract MyToken is ERC20 {\n    address _tokenOwner;\n    uint count = 0;\n \n\n    struct Loterie{\n        address sender;\n        uint256 amount;\n    }\n\n    Loterie[] choicerandom;\n\n    event transferCount(uint count);\n    event RollLoterie(Loterie[] AllTransfer);\n\n    constructor(address owner, address add1, address add2, address add3) ERC20(\"Loterie\", \"AUR\") {\n        _tokenOwner = owner;\n        _mint(_tokenOwner, 1000000000000000000000);\n        _mint(add1, 3000000000000000000000);\n        _mint(add2, 3000000000000000000000);\n        _mint(add3, 3000000000000000000000);\n    }\n\n    function transfer(address recipient, uint256 amount) public virtual override returns (bool) {\n        uint tax = (amount * 10) /100;\n\n        _transfer(_msgSender(),_tokenOwner,tax/2);\n        _transfer(_msgSender(),address(this),tax/2);\n        _transfer(_msgSender(), recipient, (amount - tax));\n        count++;\n        choicerandom.push(Loterie(_msgSender(),amount));\n        emit transferCount(count);\n        checkLotterieLength();\n        return true;\n    }\n\n    function transferToWinner(address winner) public {\n        uint amount = balanceOf(address(this));\n        _transfer(address(this),winner, amount);\n    }\n\n    function checkLotterieLength() public{\n        if (choicerandom.length >= 3){\n            emit RollLoterie(choicerandom);\n            count = 0;\n            delete choicerandom;\n        }\n    }\n\n}",
  "sourcePath": "/home/felicien/B2/Projet-Loterie/contracts/token.sol",
  "compiler": {
    "name": "solc",
    "version": "0.8.11+commit.d7f03943.Emscripten.clang"
  },
  "schemaVersion": "3.4.4",
  "updatedAt": "2022-01-21T15:35:28.799Z",
  "networkType": "ethereum",
  "devdoc": {
    "kind": "dev",
    "methods": {
      "allowance(address,address)": {
        "details": "See {IERC20-allowance}."
      },
      "approve(address,uint256)": {
        "details": "See {IERC20-approve}. Requirements: - `spender` cannot be the zero address."
      },
      "balanceOf(address)": {
        "details": "See {IERC20-balanceOf}."
      },
      "decimals()": {
        "details": "Returns the number of decimals used to get its user representation. For example, if `decimals` equals `2`, a balance of `505` tokens should be displayed to a user as `5.05` (`505 / 10 ** 2`). Tokens usually opt for a value of 18, imitating the relationship between Ether and Wei. This is the value {ERC20} uses, unless this function is overridden; NOTE: This information is only used for _display_ purposes: it in no way affects any of the arithmetic of the contract, including {IERC20-balanceOf} and {IERC20-transfer}."
      },
      "decreaseAllowance(address,uint256)": {
        "details": "Atomically decreases the allowance granted to `spender` by the caller. This is an alternative to {approve} that can be used as a mitigation for problems described in {IERC20-approve}. Emits an {Approval} event indicating the updated allowance. Requirements: - `spender` cannot be the zero address. - `spender` must have allowance for the caller of at least `subtractedValue`."
      },
      "increaseAllowance(address,uint256)": {
        "details": "Atomically increases the allowance granted to `spender` by the caller. This is an alternative to {approve} that can be used as a mitigation for problems described in {IERC20-approve}. Emits an {Approval} event indicating the updated allowance. Requirements: - `spender` cannot be the zero address."
      },
      "name()": {
        "details": "Returns the name of the token."
      },
      "symbol()": {
        "details": "Returns the symbol of the token, usually a shorter version of the name."
      },
      "totalSupply()": {
        "details": "See {IERC20-totalSupply}."
      },
      "transfer(address,uint256)": {
        "details": "See {IERC20-transfer}. Requirements: - `recipient` cannot be the zero address. - the caller must have a balance of at least `amount`."
      },
      "transferFrom(address,address,uint256)": {
        "details": "See {IERC20-transferFrom}. Emits an {Approval} event indicating the updated allowance. This is not required by the EIP. See the note at the beginning of {ERC20}. Requirements: - `sender` and `recipient` cannot be the zero address. - `sender` must have a balance of at least `amount`. - the caller must have allowance for ``sender``'s tokens of at least `amount`."
      }
    },
    "version": 1
  },
  "userdoc": {
    "kind": "user",
    "methods": {},
    "version": 1
  }
}